:020000040800F2
:10000000700800206501000817200008451C000842
:100010001520000875060008A32100080000000054
:100020000000000000000000000000004120000867
:100030009106000800000000192000084320000875
:100040007F0100087F0100087F0100087F01000890
:100050007F0100087F0100087F0100087F01000880
:100060007F0100087F0100087F0100087F01000870
:100070007F0100087F0100087F0100087F01000860
:100080007F0100087F0100087F0100087F01000850
:10009000790600087F0100087F0100087F01000841
:1000A0007F0100087F0100087F0100087F01000830
:1000B0007F010008B52000087F0100087F010008CB
:1000C0007F0100087F0100087F0100087F01000810
:1000D0007F0100087F0100087F0100087F01000800
:1000E0007F0100087F0100087F0100080000000078
:1000F0000000000000000000000000000000000000
:1001000000000000000000007F0100087F010008DF
:100110007F0100087F0100087F0100087F010008BF
:100120007F0100087F0100087F0100087F010008AF
:100130007F01000800000000000000007F010008AF
:10014000850600087F0100087F0100087F01000884
:10015000DFF80CD000F07CFA0048004705230008C7
:10016000700800200648804706480047FEE7FEE783
:10017000FEE7FEE7FEE7FEE7FEE7FEE7FEE7FEE757
:10018000B1200008510100082DE9F05F054600206C
:1001900092469B4688460646814640241BE02846F8
:1001A00041464746224600F020F853465A46C01AB8
:1001B000914110D311461846224600F0A5F92D1A98
:1001C00067EB01084F4622460120002100F09CF910
:1001D00017EB00094E41201EA4F10104DFDC484664
:1001E00031462A464346BDE8F09F202A04DB203AE8
:1001F00021FA02F00021704721FA02F3D040C2F147
:100200002002914008431946704740EA01039B07CA
:1002100003D009E008C9121F08C0042AFAD203E07B
:1002200011F8013B00F8013B521EF9D27047D2B2DF
:1002300001E000F8012B491EFBD270470022F6E7CF
:1002400010B513460A4604461946FFF7F0FF20464C
:1002500010BD80EA010210B502F00043400022D038
:100260004A001FD0010E01EB1261C0F35600C2F329
:10027000560240F4000042F40002A0FB02200004F9
:100280007F39140400D0401C50EA124001D44000D1
:10029000491EC2B20C0604EBD010401C4008802A54
:1002A00002D003E0002010BD20F00100002900DA98
:1002B0000020184310BD30B480EA010202F000456E
:1002C00030F0004221F0004013D090B1C30DD40DA6
:1002D000C2F31601C0F31600E41A41F4000140F421
:1002E00000027D34914201D3641C00E04900002CDF
:1002F00002DA30BC002070474FF400000023914226
:1003000001D3891A034340084FEA4101F7D151B1A3
:10031000914202D14FF0004105E002D24FF00101BD
:1003200001E06FF0010103EBC450284430BC00F041
:10033000FAB8420005D0C0F3C7525242914201DCE4
:100340000020704700EBC15070472DE9FE4F81EA55
:10035000030404F0004421F0004100944FF0000B2E
:1003600023F0004350EA01045ED052EA03045BD05C
:10037000C3F30A54C1F30A552C44A4F2F334019494
:10038000A0FB0254C1F3130141F48011C3F3130322
:1003900043F4801301FB024400FB034E840A970AD6
:1003A00044EA815447EA8357A4FB076802958D0A03
:1003B00005FB07854FEA932C04FB0C542705029D8F
:1003C0004FEA065847EA1637B5EB08056EEB070CFF
:1003D000870E920E47EA811742EA8312A7FB0201B9
:1003E000B6EB0B0164EB00042B0D43EA0C335E18F3
:1003F00044EB1C50DA465146E7FB0201C5F31304F7
:100400004FEA0B3343EA14534FEA0432019C43EAA8
:100410000603A4F10C040294009CCDE900B400F0A2
:10042000C8F803B0BDE8F08F00200146F9E770B5C9
:1004300021F0004303430CD0C1F30A550024D5EB4F
:10044000040564EB0403D617AD1AB34102DB0020A8
:10045000014670BD201841EB025170BDC10F80EA0A
:10046000E0700844CA079623002100F065B896237F
:100470000022114600F060B800F0004220F0004079
:10048000C10DC0F3160040F400007F2901DA0020FE
:100490007047962903DCC1F19601C84001E0963906
:1004A0008840002AF4D04042704700F0004230F00B
:1004B00000400AD0C10D01F56071C0F3160042EA98
:1004C0000151C208400711437047002001467047A0
:1004D00001F0004330B421F0004150EA010206D09F
:1004E0000A0DA2F56072C1F31301002A02DC30BCD0
:1004F00000207047440F44EAC104C100E01830BC3A
:1005000000EBC25000F00FB8202A04DB203A00FABA
:1005100002F1002070479140C2F1200320FA03F35A
:100520001943904070470029A8BF7047401C4900FC
:1005300008BF20F00100704710B4B0FA80FC00FA48
:100540000CF050EA010404BF10BC704749B1CCF173
:10055000200421FA04F411FA0CF118BF01212143FF
:100560000843A3EB0C01CB1D4FEA00614FEA1020BA
:1005700042BF002010BC704700EBC350104400295C
:10058000A4BF10BC7047401C490008BF20F0010008
:1005900010BC704710B5141E73F1000408DA401C3B
:1005A00041F1000192185B411A4301D120F0010092
:1005B00010BD2DE9F04D92469B4611B1B1FA81F282
:1005C00002E0B0FA80F220329046FFF79DFF044629
:1005D0000F4640EA0A0041EA0B0153465A460843D7
:1005E00013D0114653EA010019D0C8F14002504619
:1005F000FFF7FBFD05460E46504659464246FFF7BB
:1006000083FF084305D0012004E020463946BDE8B9
:10061000F08D0020054346EAE0762C4337430A98E4
:100620006305E40AA0EB08000022FD0A44EA4754EF
:100630000A3002D500200146E9E701051019694199
:10064000DDE9084500196941BDE8F04DA2E7000069
:10065000064C074D06E0E06840F0010394E807000F
:1006600098471034AC42F6D3FFF776FDD423000848
:10067000F4230008FEE70000014800F0BFB90000C5
:100680002C000020014800F0B9B9000054000020FF
:10069000704772B6FEE7000000B58BB001210991EA
:1006A0000691002007900891059001900290039018
:1006B000049001A9044800F08FF801A9034800F054
:1006C0008BF80BB000BD00002C000020540000206F
:1006D00090F82020012A07D0022A05D0416A41F46F
:1006E0008021416201207047006842690A434261EB
:1006F00000207047F0B590F820500468A468012DE0
:1007000007D0022D05D0416A41F4802141620120C9
:10071000F0BD04F0806504F00066354301D1E500CA
:1007200053D5C4F301640125A5401D608B684FF4C7
:10073000C0759BB1CE6805EB041733434E6843EA9E
:10074000C6030668F3514FF4C273076803EB041342
:100750000E69FE50097D012909D00DE00E88CB6895
:1007600005EB041743EA46530668F351EBE70168CB
:10077000CE5846F48076CE501179D379567941EA35
:10078000036193791B0443EA062319434FF4C676A9
:10079000036806EB041699511178D37841EA036196
:1007A000937852781B0443EA022211434FF4C47336
:1007B000026803EB0413D150006805EB04114258A2
:1007C00042F0010242500020F0BD416A41F40011A4
:1007D00041620120F0BD000010B590F82020012AF0
:1007E00007D0022A05D0416A41F4802141620120EC
:1007F00010BD3C4800F50070026842F00102026042
:10080000026822F47C52026002684B6A42EA0322C8
:1008100002600A7D02F01F0301229A40C3699343DC
:10082000C361A0F50070CB69B3B9D0F80C32934323
:10083000C0F80C328C894B6864F31F434C6900EBA1
:10084000C404C4F840320C890B6864F31F434C693C
:1008500000EBC404C4F84432CB69012B16D1D0F8A4
:100860000C321343C0F80C320C884B6864F31F43FE
:100870004C6900EBC404C4F840320C89CB6864F3C3
:100880001F434C6900EBC404C4F844328B697BB14C
:10089000D0F804321343C0F804320B6973B1D0F8B6
:1008A00014321343C0F81432096A01290CD010E045
:1008B000D0F804329343C0F80432EEE7D0F8143293
:1008C0009343C0F81432EFE7D0F81C121143C0F87C
:1008D0001C12D0F8001221F00101C0F80012002013
:1008E00010BD000000640040704770B590F82040D3
:1008F000012C07D0022C05D0416A41F480214162CD
:10090000012070BD21B104682469A4072AD003E046
:100910000468E468A4071FD04FF4D874056804EB9A
:1009200001142D5905F0040595600DB305682D5986
:10093000ED08556005682C5904F00204D4604FF4AA
:10094000DA74056804EB01142E5906F00F06082E20
:1009500013D30825156114E0416A41F40011416286
:10096000012070BD416A41F400114162012070BD57
:1009700005682D596D0D1560DCE72D5905F00F0543
:10098000156105682D59C5F30725956105682C5932
:10099000240C54614FF4DC72046802EB0112A45879
:1009A0001C700468A458240A5C700468A458240CC1
:1009B0009C700468A258120EDA704FF4DE7204685C
:1009C00002EB0112A4581C710468A458240A5C713B
:1009D0000468A458240C9C710468A258120EDA71A1
:1009E00031B10068016941F020010161002070BD52
:1009F0000068C16841F02001C160F7E72DE9F05FB0
:100A00000546002428684669D0F804908768D0F825
:100A10000CA0D0F810B0D0F81880F10748D0F90732
:100A200014D001218160B80703D5284600F06EFA82
:100A30000CE0780702D54FF4006407E0380702D5D0
:100A40004FF4805402E0284600F05FFAF80516D50E
:100A500029684FF480708860B80503D5284600F0F7
:100A600057FA0CE0780502D544F4005407E0380545
:100A700002D544F4804402E0284600F048FAF80326
:100A800016D529684FF480308860B80303D528460E
:100A900000F040FA0CE0780302D544F4004407E08B
:100AA000380302D544F4803402E0284600F031FADD
:100AB000300707D55FEACA6004D544F4007429689A
:100AC0001020C86070074FF0080707D55FEA0A706A
:100AD00004D52868C760284600F0C4F9B00706D5D9
:100AE0002868C068800702D0284600F0BDF970066B
:100AF00007D55FEACB6004D544F4806429681020F0
:100B00000861B00607D55FEA0B7004D52868076155
:100B1000284600F0CBF9F00606D528680069800762
:100B200002D0284600F0C3F9B00308D55FEAC960D7
:100B300005D5296810204860284600F0B9F9F0036F
:100B400007D55FEA097004D528684760284600F099
:100B5000E2F9300446D55FEA497040D5F00504D586
:100B60005FEAC87001D044F00104B00504D55FEA23
:100B7000887001D544F00204700504D55FEA48701E
:100B800001D544F00404300529D518F0700F26D0A3
:100B900008F07000402815D006DC102809D0202865
:100BA0000AD0302816D10AE050280ED0602811D182
:100BB0000EE044F008040DE044F010040AE044F0B4
:100BC000200407E044F0400404E044F0800401E025
:100BD00044F480742868816921F07001816129687A
:100BE00004204860002C05D0686A204368622846CB
:100BF000FFF77AFEBDE8F09F70B50446002C03D0E5
:100C000094F8200010B104E0012070BD204600F0EF
:100C10009DF82068016841F00101016000F096FA3A
:100C2000054605260CE000F091FA401B0A2807D97A
:100C3000606A40F40030606284F82060012070BD7A
:100C400020684068C007EED02068016821F00201EA
:100C5000016000F07BFA05460CE000F077FA401BDB
:100C60000A2807D9606A40F40030606284F8206086
:100C7000012070BD206840688007EED4207E0128E6
:100C80003FD02068016821F080010160607E01286A
:100C90003DD02068016821F040010160A07E01285C
:100CA0003BD02068016821F020010160E07E01282E
:100CB00039D02068016841F010010160207F0128CF
:100CC00037D02068016821F008010160607F0128A9
:100CD00035D02068016821F004010160D4E90201E7
:100CE0000843D4E90412114308436168491E0843CC
:100CF0002168C86100206062012084F82000002083
:100D000070BD2068016841F080010160BEE7206885
:100D1000016841F040010160C0E72068016841F0CE
:100D200020010160C2E72068016821F01001016024
:100D3000C4E72068016841F008010160C6E7206847
:100D4000016841F004010160C8E70000F0B585B01A
:100D50000021019102910391049102683C483B4FAC
:100D60003C4C016802250326491C3B4BBA4235D155
:100D70000160012907D1D86940F00070D861D869B5
:100D800000F000700090986940F008009861986940
:100D900000F0080000904FF48070019001A92046F7
:100DA00000F0CCF84FF4007101910295049601A96E
:100DB000204600F0C3F82949486820F4C04040F0BC
:100DC000E06040F48040486000221146142000F0AA
:100DD0002BFA142000F01AFA05B0F0BD204FBA42E9
:100DE000FAD1DA6942F08062DA61DA6902F080628F
:100DF00000920160012907D1D86940F00070D861E4
:100E0000D86900F000700090986940F0080098617F
:100E1000986900F0080000904FF48050019001A9FB
:100E2000204600F08BF84FF4005101910295049692
:100E300001A9204600F082F800221146402000F06F
:100E4000F3F9402000F0E2F9C6E70000006400403A
:100E500000000020000C0140001002400000014092
:100E6000006800407047000000B589B00B49884217
:100E700012D16B4602AA00210848FFF736FD6946E9
:100E8000074801F0D6F902986A4681B2054800F099
:100E900069FF054800F0ACFF09B000BD2C00002040
:100EA0004C040020C4000020FC0300207047704761
:100EB000704770B5044694F82000012805D0606A98
:100EC00040F400206062012070BD022084F8200000
:100ED0002068016821F00101016000F037F9054642
:100EE0000DE000F033F9401B0A2808D9606A40F48D
:100EF00000306062052084F82000012070BD206869
:100F00004068C007EDD1606270BD704770477047A0
:100F1000704770477047704770B5044600F016F987
:100F20000546601C02D004480078044400F00EF925
:100F3000401BA042FAD370BD040000202DE9F84FF9
:100F400000240023DFF8C4914FF00F08A9F1040B2F
:100F500009F1040AABF1040ED1E00127A7403A40A1
:100F6000BA4275D1DFF8A8C14D68A5EB0C066545FE
:100F70002BD00DDC032D34D005DC35B3012D19D079
:100F8000022D2FD11BE0112D16D0122D2AD119E0E0
:100F9000B6F5881F19D006DCB6F5803F15D0B6F53A
:100FA000801F1FD111E0B6F5001F0ED0B6F5041F4B
:100FB00018D10AE0CB6815E0CB681B1D12E0CB68A6
:100FC00008330FE0CB680C330CE08B6823B1012BA6
:100FD00004D00823476105E0042303E008230761E8
:100FE00000E00023FF2A01D8054601E000F10405D6
:100FF00002D84FEA840603E0A4F108064FEA860609
:101000002F6808FA06FC27EA0C0703FA06F647EAF7
:1010100006072F604D68ED0070D53E4DAE6946F075
:101020000106AE61AD6905F0010500953A4D24F069
:1010300003067719BE68A5072D0F08FA05FC26EAF6
:101040000C06DFF8D8C0604503D14FF0000C17E064
:1010500054E0DFF8CCC0604502D14FF0010C0FE046
:10106000DFF8C0C0604502D14FF0020C08E0DFF8A5
:10107000B8C0604502D14FF0030C01E04FF0040C02
:101080000CFA05FC4CEA060CC7F808C04D68ED02E6
:1010900005D5D9F800501543C9F8005004E0D9F837
:1010A00000509543C9F800504D68AD0205D5DAF8F7
:1010B00000501543CAF8005004E0DAF80050954398
:1010C000CAF800504D68AD0305D5DBF80050154354
:1010D000CBF8005004E0DBF800509543CBF800500B
:1010E0004D68ED0305D5DEF800501543CEF80050ED
:1010F00004E0DEF800509543CEF80050641C0A6806
:1011000032FA04F57FF429AFBDE8F88F08040140F6
:1011100000001110001002400000014000080140D2
:10112000000C01400010014000140140C26821EA97
:1011300002030A4043EA024101617047002A01D0DC
:10114000016170470904016170470000014880682F
:1011500070470000040000200248816802781144B2
:10116000816070470400002010B50748016841F015
:1011700010010160032000F077F80F2000F006F85E
:1011800000F026F8002010BD0020024070B5044693
:101190000D4D4FF47A712878B1FBF0F00B490968D6
:1011A000B1FBF0F000F08CFB08B1012070BD102CF9
:1011B00007D200222146501E00F036F86C60002055
:1011C00070BD012070BD0000040000201000002050
:1011D00008B50C48816941F001018161816901F024
:1011E00001010091C16941F08051C161C06900F005
:1011F000805000900449486820F0E06040F00070A2
:10120000486008BD0010024000000140002809DBD2
:1012100000F01F02012191404009800000F1E02010
:10122000C0F8001170470000F0B40D460D4B1B686C
:10123000C3F30223C3F10704042C00D90424191DAD
:10124000072901D2002300E0DB1E012606FA04F183
:10125000491E294099409E40761E16403143F0BCFD
:1012600000F0A0BF0CED00E000F00701054A106897
:101270004FF6FF03184040EA01200349084310607D
:10128000704700000CED00E00000FA052DE9F04782
:1012900004460D46002C17D0DFF83081D8F8000046
:1012A00000F00700A84211D2D8F8000020F0070093
:1012B0002843C8F80000D8F8000000F00700A84252
:1012C00004D00120BDE8F0870120FBE72068404EF4
:1012D000810712D5400703D5706840F4E060706064
:1012E0002078000703D5706840F460507060706823
:1012F000A16820F0F000084370602078C0072CD06F
:101300006068012806D0022809D0316889070BD40B
:101310000120D7E73168890306D40120D2E731687C
:10132000890101D40120CDE7716821F00301014357
:101330007160FFF70BFF074641F2883906E0FFF7BF
:1013400005FFC01B484501D90320BBE770686168F1
:1013500000F00C00B0EB810FF1D1D8F8000000F0E4
:101360000700A8420ED9D8F8000020F00700284353
:10137000C8F80000D8F8000000F00700A84201D02B
:1013800001209FE72078400705D57068E16820F4C8
:10139000E060084370602078000706D57068216916
:1013A00020F4605040EAC100706000F019F87168E4
:1013B000084AC1F30311515CC84007490860074857
:1013C0000068FFF7E3FE00207CE7000000200240F9
:1013D00000100240C2230008100000200800002076
:1013E0002DE9F0411D4B59681D4801F00C02042AFB
:1013F0002ED0082A2CD11B48C1F38342845CC80339
:1014000028D5D86A174900F00F000E31085CD96A58
:10141000C90316D5D96AC1F30312521CD96AC1F3A4
:101420000321891CA2FB0023A1FB04170C4D0026FD
:10143000A1FB050C07FB05C501FB0651FEF7A4FE49
:1014400003E007496143B1FBF0F00D2C00D14008E7
:10145000BDE8F08104486043FAE700000010024054
:1014600000127A00A423000800093D002DE9F84F7E
:101470000446002C0ED02078F84DC0075ED0686876
:10148000C0F3810001280BD06868C0F381000228F6
:1014900003D00CE00120BDE8F88F6868C00306D5D2
:1014A000286880034AD5A068A8BB0120F3E7A0689C
:1014B000B0F5803F11D0A8B1B0F5A02F1BD028689F
:1014C00020F480302860286820F480202860A068FC
:1014D00030B3FFF73BFE06461EE0286840F480303C
:1014E0002860F4E7286820F480302860286820F419
:1014F00080202860EBE7286840F480202860286876
:1015000040F480302860E2E7FFF720FE801B64286B
:1015100002D90320BFE711E028688003F4D50DE06D
:10152000FFF714FE064606E0FFF710FE801B642856
:1015300001D90320AFE728688003F5D42078C84E8E
:1015400080074FF0010A4FF0000746D5686810F099
:101550000C0F07D06868C0F38100022812D16868B8
:10156000C0030FD42868800704D56069012801D022
:10157000012090E72868A16920F0F80040EAC10046
:1015800028602AE06069C0B1C6F800A0FFF7DEFD60
:10159000804607E0FFF7DAFDA0EB0800022801D93A
:1015A000032078E728688007F4D52868A16920F02F
:1015B000F80040EAC10028600FE03760FFF7C6FD81
:1015C000804607E0FFF7C2FDA0EB0800022801D922
:1015D000032060E728688007F4D42078000727D527
:1015E000A048E169A1B1C0F800A0FFF7AFFD8046B7
:1015F00007E0FFF7ABFDA0EB0800022801D90320AC
:1016000049E7686A8007F4D5012000F007FD0FE084
:101610000760FFF79BFD804607E0FFF797FDA0EB13
:101620000800022801D9032035E7686A8007F4D44E
:10163000207840077AD54FF00008E869C00009D447
:10164000E86940F08050E861E86900F0805000905F
:101650004FF00108DFF810B2DBF80000C00515D428
:10166000DBF8000040F48070CBF80000FFF76EFD5F
:10167000814607E0FFF76AFDA0EB0900642801D965
:10168000032008E7DBF80000C005F3D52069012836
:1016900012D0B0B105281DD0286A20F001002862C0
:1016A000286A20F004002862206941F2883B30B3A8
:1016B000FFF74CFD81461EE0286A40F001002862D9
:1016C000F2E7286A20F001002862286A20F004006E
:1016D0002862E9E7286A40F004002862286A40F09E
:1016E00001002862E0E7FFF731FDA0EB0900584553
:1016F00001D90320CFE6286A8007F4D50FE0FFF771
:1017000025FD814608E0FFF721FDA0EB09005845C3
:1017100002D90320BFE609E0286A8007F3D4B8F1B4
:10172000010F03D1E86920F08050E861E06A78B3E6
:101730006968C90309D56968C1F38101022904D127
:10174000E96AC90301D50120A5E6022808D0E86AA4
:1017500020F48030E862B766FFF7F8FC804641E08D
:101760002868C00007D5E86A616B00F0F000884285
:1017700001D001208FE6B766FFF7E8FC804608E05D
:10178000FFF7E4FCA0EB0800642802D9032082E6FE
:101790002BE028680001F3D4E86A616B20F0F000C8
:1017A0000843E862E86A216B20F470600843E8624D
:1017B000C6F868A0FFF7CAFC804607E0FFF7C6FC42
:1017C000A0EB0800642801D9032064E62868000122
:1017D000F4D50AE0FFF7BAFCA0EB0800642801D9B1
:1017E000032058E628680001F4D4206AF0B3696841
:1017F000C1F38101022950D0022804D03766FFF7D7
:10180000A5FC044645E03766FFF7A0FC074606E066
:10181000FFF79CFCC01B022801D903203BE6286887
:101820008001F5D4606AB0F5803F09D1E86A61684B
:101830000843E862E86AE16820F00F000843E862C4
:10184000D4E909010843696821F474110843686008
:10185000C6F860A0FFF77AFC04460FE000100240D3
:1018600000004242800442420070004026E0FFF740
:101870006DFC001B022801D903200CE628688001BA
:10188000F5D51BE0FFF762FC001B022801D90320FD
:1018900001E628688001F5D410E001280CD06868C2
:1018A000626A00F48031914204D1A16A00F47010A0
:1018B000884203D00120EEE50120ECE50020EAE5B6
:1018C00010B5401EB0F1807F01D3012010BD4FF054
:1018D000E02460610F21601700F064FC0020A0612B
:1018E00007202061002010BD7047704770B590F848
:1018F0003C20012A28D0012680F83C60022280F892
:101900003D2002685368946823F070050B682B43F0
:1019100053600E4B02689A420BD0B2F1804F08D050
:101920000B4B9A4205D00B4B9A4202D00A4B9A427B
:1019300004D124F080034968194391603C3046701B
:1019400000210170002070BD022070BD002C0140FC
:101950000004004000080040000C004010B50446A0
:10196000002C03D094F83D0010B107E0012010BD19
:10197000002084F83C00204600F016F8022084F88D
:101980003D00211D206800F09BFB01203D3460726A
:101990006070A070E07020716071A071E0712072C1
:1019A0002070002010BD000008B500680B49884277
:1019B00012D10B48C16941F00201C161C06900F058
:1019C00002000090002211461D20FFF72DFCBDE80B
:1019D00008401D20FFF71ABC08BD000000040040AD
:1019E0000010024070B50446002594F83C00012820
:1019F00017D0012684F83C60022084F83D0020685E
:101A0000826822F0770222F47F42826008685028C0
:101A100038D00DDC202853D005DC90B3102811D12C
:101A20004EE0022070BD30284AD040280AD13DE067
:101A3000602831D070280CD0B0F5805F03D0B0F5AD
:101A4000005F12D001253C346670002020702846CB
:101A500070BDCB68D1E90121206800F06DFB2068E2
:101A6000816841F077018160EDE7CB68D1E9012120
:101A7000206800F061FB2068816841F4804181604A
:101A8000E1E71DE0CA684968206800F067FB502163
:101A9000206800F05BFBD6E7CA684968206800F060
:101AA0006EFB6021206800F051FBCCE7CA684968F2
:101AB000206800F053FB4021206800F047FBC2E79C
:101AC00022680146104600F041FBBCE7704770B544
:101AD0000446206801694FF00005C943890716D400
:101AE000C168C943890712D4E91E0161012020772A
:101AF00020688069800703D02046FFF7E7FF05E0F4
:101B0000204600F09BF8204600F099F825772068E1
:101B10000169C943490718D4C168C943490714D4A6
:101B20006FF004010161022020772068806910F4C1
:101B3000407F03D02046FFF7C9FF05E0204600F0B4
:101B40007DF8204600F07BF8257720680169C943BD
:101B5000090717D4C168C943090713D46FF00801F6
:101B60000161042020772068C069800703D02046E7
:101B7000FFF7ACFF05E0204600F060F8204600F0DB
:101B80005EF8257720680169C943C90618D4C16881
:101B9000C943C90614D46FF01001016108202077F1
:101BA0002068C06910F4407F03D02046FFF78EFF05
:101BB00005E0204600F042F8204600F040F8257786
:101BC00020680169C943C90708D1C168C943C90769
:101BD00004D1891E0161204600F032F820680169B5
:101BE000C943090609D4C168C943090605D46FF081
:101BF000800101612046FFF777FE20680169C94333
:101C0000490609D4C168C943490605D46FF04001AB
:101C10000161204600F015F820680169C943890672
:101C20000BD4C168C943890607D46FF02001016154
:101C30002046BDE87040FFF758BE70BD7047704742
:101C400070477047FEE700000B490A4808600C49DE
:101C50000A48C1F88C0101F5C8710A48C1F88C0125
:101C6000094800214160082202618160C16001755C
:101C7000704700007D230008180000202C00002081
:101C8000C400002054000020E40300207CB5064678
:101C90000C461546002D03D00021012D31D000E067
:101CA00001210022114327D06E3434F81A1C080A8F
:101CB0008DF800008DF80110608A000A8DF802008E
:101CC000A07C8DF80300E08F000A8DF8040094F8E2
:101CD0003E008DF80500B4F86A00000A8DF8060091
:101CE00094F86A008DF80700D4F81E0133686E3C42
:101CF0006A464FF4007198472DB10021022D2ED075
:101D000002E00122CEE701210020014326D004F5A4
:101D1000907434F81C1C080A8DF800008DF801102E
:101D2000208A000A8DF80200207C8DF80300A08F25
:101D3000000A8DF8040094F83C008DF80500B4F812
:101D40006800000A8DF8060094F868008DF8070016
:101D50003368E06E6A4640F2FF1198477CBD01206F
:101D6000D3E7000030B4034CD0F88C31636030BC52
:101D700000F002B81800002010B5C9B253781478EA
:101D800043EA042301EB410404EBC10100EB8104AD
:101D90006380D078917840EA0120A0805079117951
:101DA00040EA0120E08090792072608800F010F80D
:101DB0002061608800F07CFAE060E08800F092FA30
:101DC000FEF75AFBA061A088A082207AE06110BDD6
:101DD00010B5FEF74CFB0449FEF76DFABDE8104064
:101DE0000249FEF736BA000000F8FF450000B44390
:101DF00010B50446204600F008F8A08BFEF737FB2C
:101E0000A168FEF758FAA06210BD30B5038B43837A
:101E10000179026801EB410404EBC104022101EBEA
:101E20008401515A0183042505EB8404125B8283EB
:101E3000CA1A12F5805F02DC436A5B1C4362B2F58A
:101E4000805F02DB426A521E4262426A01EB42310B
:101E5000016230BD10B5FFF7F7FEBDE8104000F09D
:101E600001B80000034804210171034901600349DE
:101E700081607047FC030020C40000202CA0994121
:101E800030B40B4DD0F88C416C6001EB410404EB95
:101E9000C10400EB84042285002B07D1012202EB50
:101EA00091020146284630BCFFF7F0BE30BC7047B7
:101EB0001800002010B50F480D4901600421416051
:101EC00000218160C1604FF480220261D200426132
:101ED0000176012242768176C17601774177FEF75D
:101EE0008BFE002803D0BDE81040FEF7D2BB10BD2A
:101EF000006400402C00002010B50F480D4901601F
:101F00000421416000218160C1604FF40032026110
:101F100052014261017641768176C176017741773F
:101F2000FEF76AFE002803D0BDE81040FEF7B1BB03
:101F300010BD0000006800405400002010B586B0BD
:101F4000002002900390049005901648816941F0AA
:101F500020018161816901F020010191816941F0D5
:101F600008018161816901F008010191816941F0F5
:101F700004018161806900F0040001900A4C002294
:101F800003212046FFF7DAF8032102910121039192
:101F900002210491059102A92046FEF7CFFF06B069
:101FA00010BD000000100240000C014010B586B0CA
:101FB000002402940394049405940094019414481A
:101FC000124901604821416084604FF47A71C16018
:101FD00004618461FFF7C2FC08B1FEF75AFB4FF4BD
:101FE0008050029002A90A48FFF7FCFC08B1FEF7F6
:101FF00050FB0094019469460548FFF777FC0028E0
:1020000001D0FEF746FB06B010BD00000004004002
:102010007C000020FEE7FEE77047000008B5074996
:102020004FF4FA520968B1FBF2F14143009100BF4D
:102030000098411E0091FAD208BD00001000002057
:102040007047FFF789B8000070B594B0382106A832
:10205000FEF7F4F8142101A8FEF7F0F80125069523
:1020600028040890002409940B95079402260E96E4
:102070000F904FF4E0101090119406A8FFF7F6F9B6
:1020800008B1FEF706FB0F200190029603944FF46F
:10209000806004900594022101A8FFF7F7F808B1C9
:1020A000FEF7F7FA0148056714B070BD0000424220
:1020B000704700000148FFF70ABD00007C000020C7
:1020C000F0B50268184C194D194E1A4F4FF0804C5C
:1020D000A04207D0604505D0A84203D0B04201D04D
:1020E000B84203D122F070034A681A43A04207D0D5
:1020F000604505D0A84203D0B04201D0B84203D118
:1021000022F44073CA681A434B6922F080021A43D2
:1021100002608A68C2620A688262A04201D10969CB
:10212000016301214161F0BD002C01400004004029
:1021300000080040000C004010B5846824F47F447F
:1021400042EA03220A432243826010BD826822F0E1
:1021500070020A4342F007018160704710B5036ABC
:10216000046A24F001040462846924F0F00444EA5F
:10217000021423F00A020A438461026210BD10B502
:10218000036A046A24F010040462846924F470442D
:1021900044EA023223F0A00343EA011182610162A2
:1021A00010BDFEE70907090E002804DB00F1E0205E
:1021B00080F80014704700F00F0000F1E02080F874
:1021C000141D704702E008C8121F08C1002AFAD186
:1021D00070477047002001E001C1121F002AFBD1A7
:1021E000704700000949084808600A4908484860E3
:1021F0000848002118384160082202618160C160EE
:10220000017500F031B8000091230008240000207F
:102210002C0000204C0400201CB50246D1E902032A
:10222000CDE900030C88486813686A462146984740
:102230001CBDAFF3008010B50A68026149684161B6
:10224000017CC91ECAB2817C012903D0C07C40B187
:10225000012010BD00F113011830FDF7D6FF00205A
:1022600010BD002010BD00000448012101770021AD
:10227000417780F820100D21018070474C04002028
:1022800082B00A4A416851600421017201784172AA
:10229000012181720099C0F80B109DF80410C173E0
:1022A0000146104602B0FFF7B7BF0000240000202F
:1022B00010B5FEF7DCF80849FDF7FDFFFEF7F5F86D
:1022C000064A074BFEF741F80122FEF7B0F8BDE8D9
:1022D0001040FEF7FDB8000000F8FF451F85EB51E8
:1022E000B81E094010B5A0F58040FEF7B7F86FF0B2
:1022F0000D01FEF71EF8BDE810400149FDF7A9BF2A
:102300000000A041FEF730FFFFF79EFEFFF716FE2C
:10231000FFF7D0FDFFF7F0FDFFF748FEFEF7BCF931
:102320001148FEF7C6FD1148FEF7C3FD02210E4815
:10233000FEF7CEF902210D48FEF7CAF9FFF78AFD34
:10234000FFF750FF0A4C0023FF2201210948FFF745
:1023500097FD0948FFF794FF01212046FEF7E6FEAE
:102360006420FEF7D9FDEEE72C0000205400002089
:10237000000C0140C40000204C040020024B1960F6
:10238000024B0149FEF7B6B9E40300201400002017
:10239000024B1960024B0149FEF7ACB9340400202E
:1023A00020000020000004050607080900000000C6
:1023B000000D0102030405060708090A0B0C0D0EA7
:1023C0000F100000000000000000010203040607D7
:1023D00008090000F4230008000000202C00000081
:1023E000C4210008202400082C000020440800001C
:1023F000D4210008000000000100000010000000CF
:10240000000000000024F4000000000000000000B4
:1024100000000000000000000000000000000000BC
:04000005080001519D
:00000001FF
