:020000040800F2
:10000000E80D0020ED0100089126000851200008AD
:100010008D260008CF040008CF2D00080000000046
:10002000000000000000000000000000D5270008CC
:10003000F504000800000000A9270008332C000880
:10004000070200080702000807020008070200086C
:10005000070200080702000807020008070200085C
:10006000070200080702000807020008070200084C
:10007000070200080702000807020008070200083C
:10008000070200080702000807020008070200082C
:10009000D50400080702000807020008070200084C
:1000A000070200080702000807020008070200080C
:1000B00007020008C52C0008070200080702000814
:1000C00007020008070200080702000807020008EC
:1000D00007020008070200080702000807020008DC
:1000E00007020008070200080702000800000000DD
:1000F0000000000000000000000000000000000000
:1001000000000000000000000702000807020008CD
:10011000070200080702000807020008070200089B
:10012000070200080702000807020008070200088B
:10013000070200080000000000000000070200089D
:10014000E50400080702000807020008070200088B
:1001500000F002F800F03AF80AA090E8000C82449F
:100160008344AAF10107DA4501D100F02FF8AFF27C
:10017000090EBAE80F0013F0010F18BFFB1A43F085
:1001800001031847BC3D0000DC3D0000103A24BFCD
:1001900078C878C1FAD8520724BF30C830C144BFEC
:1001A00004680C607047000000230024002500262E
:1001B000103A28BF78C1FBD8520728BF30C148BFCA
:1001C0000B6070471FB51FBD10B510BD00F046F99C
:1001D0001146FFF7F7FF02F083FE00F064F903B465
:1001E000FFF7F2FF03BC00F06BF9000009488047FD
:1001F00009480047FEE7FEE7FEE7FEE7FEE7FEE709
:10020000FEE7FEE7FEE7FEE704480549054A064B20
:1002100070470000B52C000851010008E8070020D5
:10022000E80D0020E8090020E809002053EA020C4C
:1002300000F069802DE9F04B4FF00006002B1FBF46
:10024000B3FA83F503FA05F424FA05F65E4012BF0B
:100250001643B2FA82F502FA05F4C5F120051EBF75
:1002600022FA05FC44EA0C04203556EA044C4FEA15
:10027000144418BF641C4FF000084FF0000990426E
:1002800071EB030C39D3002919BFB1FA81F701FAD8
:1002900007F6B0FA80F700FA07F6C7F120071EBF8D
:1002A00020FA07FC46EA0C062037B6FBF4FCA7EB65
:1002B0000507103F07F01F0BCBF120060CFA0BFBD4
:1002C0002CFA06F644BFB3460026202FA4BF5E4694
:1002D0004FF0000B5BEA060C08BF4FF0010B19EB67
:1002E0000B09ABFB027C48EB0608C01B06FB02CCEB
:1002F0000BFB03CC71EB0C01C1E70B4602464146F8
:100300004846BDE8F08B13B54FF000004FF00001F8
:10031000AFF30080BDE81C407047032A40F23080F4
:1003200010F0030C00F0158011F8013BBCF1020F36
:10033000624498BF11F801CB00F8013B38BF11F8B7
:10034000013BA2F1040298BF00F801CB38BF00F8CE
:10035000013B11F0030300F02580083AC0F008804B
:1003600051F8043B083A51F804CBA0E80810F5E72F
:10037000121D5CBF51F8043B40F8043BAFF3008012
:10038000D20724BF11F8013B11F801CB48BF11F887
:10039000012B24BF00F8013B00F801CB48BF00F857
:1003A000012B704710B5203AC0F00B80B1E818500F
:1003B000203AA0E81850B1E81850A0E81850BFF44F
:1003C000F5AF5FEA027C24BFB1E81850A0E81850EE
:1003D00044BF18C918C0BDE810405FEA827C24BF42
:1003E00051F8043B40F8043B08BF7047D20728BFD0
:1003F00031F8023B48BF11F8012B28BF20F8023B1F
:1004000048BF00F8012B70474FF0000200B51346BB
:1004100094469646203922BFA0E80C50A0E80C5024
:10042000B1F12001BFF4F7AF090728BFA0E80C50D5
:1004300048BF0CC05DF804EB890028BF40F8042BCE
:1004400008BF704748BF20F8022B11F0804F18BF3B
:1004500000F8012B7047704770477047754600F0F1
:100460002BF8AE4605006946534620F00700854646
:1004700018B020B5FFF7C8FEBDE820404FF00006D9
:100480004FF000074FF000084FF0000B21F007017C
:10049000AC46ACE8C009ACE8C009ACE8C009ACE8BF
:1004A000C0098D46704710B50446AFF30080204662
:1004B000BDE81040FFF793BE004870478407002056
:1004C00001491820ABBEFEE726000200704700BFBE
:1004D000FEE7000010B5024800F027FA10BD00004A
:1004E0003C00002010B5024800F01FFA10BD0000CB
:1004F00064000020704772B600BFFEE710B50246E8
:1005000092F82030012B01D0022B06D110684069EF
:10051000084314686061002010BD506A40F48020D8
:1005200050620120F8E7F0B504460D461E4694F8E7
:10053000207020688368A86800B900E000BF012F20
:1005400001D0022F7DD103F0806030B903F000604C
:1005500018B903F0805000287ED0C3F30161012058
:1005600088403060A86860B9B5F800C0E86840EA23
:100570004C5C206800F5C07000EB0110C0F800C0B2
:100580000FE0D5E901C040EACC00D5F80CC040EA44
:100590000C00D4F800C00CF5C07C0CEB011CCCF8AE
:1005A0000000D5F810C0206800F5C07000EB011005
:1005B000C0F804C0287D01280ED1206800F5C07065
:1005C00000EB0110406840F4807C206800F5C070AA
:1005D00000EB0110C0F804C0D079000692F806C004
:1005E00040EA0C4092F805C040EA0C2092F804C0A2
:1005F00040EA0C00D4F800C00CF5C07C0CEB011CE8
:10060000CCF80C00D078000692F802C040EA0C400A
:1006100092F801C040EA0C2092F800C040EA0C00B9
:10062000D4F800C00CF5C07C0CEB011CCCF8080021
:10063000206800F5C07000EB0110006840F0010C6C
:1006400001E00FE008E0206800F5C07000EB011049
:10065000C0F800C00020F0BD606A40F40010606285
:100660000120F8E7606A40F4802060620120F2E730
:10067000F0B504460A46216894F82050012D01D0B7
:10068000022D7ED1424901F50071086840F0010059
:100690000860086820F47C5008600868566A40EAE0
:1006A00006200860107D00F01F06012000FA06F306
:1006B000C8699843C861A1F50071D069C8B9D1F87B
:1006C0000C029843C1F80C02908880B2968940EAE7
:1006D000064601F51070576940F83760108880B2FF
:1006E000168940EA064601F51070576900EBC7000D
:1006F0004660D069012819D1D1F80C021843C1F81D
:100700000C02908880B2168840EA064601F5107007
:10071000576940F83760908980B2168940EA0646EA
:1007200001F51070576900EBC7004660906928B961
:10073000D1F804029843C1F8040204E0D1F804029D
:100740001843C1F80402106928B9D1F8140298437B
:10075000C1F8140204E0D1F814021843C1F81402DD
:10076000106A012804D1D1F81C021843C1F81C02F8
:10077000D1F8000220F00100C1F800020020F0BD15
:10078000FFE7606A40F4802060620120F7E7000024
:1007900000640040704770B5044694F82050012D65
:1007A00001D0022D7DD151B92068C06800F003004E
:1007B00080B9606A40F400106062012070BD20685A
:1007C000006900F0030028B9606A40F4001060621C
:1007D0000120F3E7206800F5D87000EB01100068F5
:1007E00000F004009060906840B9206800F5D8706F
:1007F00000EB01100068400D106007E0206800F574
:10080000D87000EB01100068C0085060206800F547
:10081000D87000EB0110006800F00200D060206882
:1008200000F5D87000EB0110406800F00F000828B8
:1008300002D30820106108E0206800F5D87000EBB2
:100840000110406800F00F001061206800F5D870BA
:1008500000EB0110406800F47F40000A90612068BE
:1008600000F5D87000EB01104068000C5061206862
:1008700000F5D87000EB011080681870206800F552
:10088000D87000EB0110806800F47F40000A5870B7
:10089000206800F5D87000EB0110806800F47F003C
:1008A00000E03CE0000C9870206800F5D87000EB88
:1008B00001108068000ED870206800F5D87000EB39
:1008C0000110C0681871206800F5D87000EB0110A5
:1008D000C06800F47F40000A5871206800F5D870A5
:1008E00000EB0110C06800F47F00000C98712068D4
:1008F00000F5D87000EB0110C068000ED87131B956
:100900002068C06840F020002668F06005E020689C
:10091000006940F020002668306100204EE7606AE0
:1009200040F480206062012048E72DE9F05F044632
:100930000025206846692068D0F804902068876800
:100940002068D0F80CA02068D0F810B02068D0F84B
:10095000188006F00100002855D007F00100C0B152
:1009600001202168886007F0020018B1204600F0DD
:10097000E6FA0EE007F0040010B145F4006508E067
:1009800007F0080010B145F4805502E0204600F061
:10099000D5FA07F48070C8B14FF480702168886080
:1009A00007F4007018B1204600F0CBFA0EE007F40F
:1009B000806010B145F4005508E007F4006010B104
:1009C00045F4804502E0204600F0BAFA07F4803092
:1009D000C8B14FF480302168886007F4003018B146
:1009E000204600F0B0FA0EE007F4802010B145F484
:1009F000004508E007F4002010B145F4803502E01E
:100A0000204600F09FFA06F0080038B10AF0100006
:100A100020B145F4007510202168C86006F004007C
:100A200040B10AF0080028B108202168C8602046BB
:100A300000F016FA06F0020038B12068C06800F035
:100A4000030010B1204600F00DFA06F0400038B166
:100A50000BF0100020B145F480651020216808617A
:100A600006F0200040B10BF0080028B108202168F2
:100A70000861204600F030FA06F0100038B1206816
:100A8000006900F0030010B1204600F026FA06F4D9
:100A9000003040B109F0100028B1102021684860F2
:100AA000204600F01BFA06F4803040B109F008003F
:100AB00028B1082021684860204600F045FA06F475
:100AC000004088B309F0040078B306F4807020B1C8
:100AD00008F0010008B145F0010506F4007020B1EE
:100AE00008F0020008B145F0020506F4806020B16C
:100AF00008F0040008B145F0040506F40060A0B158
:100B000008F0700088B108F07000402817D006DCAB
:100B100010280BD020280CD0302819D10CE05028F8
:100B200010D0602814D110E01DE019E045F0080550
:100B30000FE045F010050CE045F0200509E045F018
:100B4000400506E045F0800503E045F4807500E0CF
:100B500000BF00BF2068806920F0700021688861B4
:100B60000420216848602DB1606A284360622046F5
:100B7000FFF710FEBDE8F09F70B504460CB90120E8
:100B800070BD94F8200010B9204600F0AFF820683E
:100B9000006840F001002168086000F081FB054614
:100BA0000DE000F07DFB401B0A2808D9606A40F484
:100BB00000306062052084F820000120E0E7206812
:100BC000406800F001000028EBD02068006820F0A9
:100BD00002002168086000F063FB05460DE000F0AC
:100BE0005FFB401B0A2808D9606A40F4003060624D
:100BF000052084F820000120C2E72068406800F04A
:100C000002000028EBD1207E012806D12068006870
:100C100040F080002168086005E02068006820F04E
:100C2000800021680860607E012806D12068006885
:100C300040F040002168086005E02068006820F06E
:100C4000400021680860A07E012806D12068006865
:100C500040F020002168086005E02068006820F06E
:100C6000200021680860E07E012806D12068006825
:100C700020F010002168086005E02068006840F05E
:100C8000100021680860207F012806D120680068D4
:100C900040F008002168086005E02068006820F046
:100CA000080021680860607F012806D1206800687C
:100CB00040F004002168086005E02068006820F02A
:100CC000040021680860D4E902010843216908434F
:100CD000616908436168491E08432168C8610020B2
:100CE0006062012084F82000002049E710B586B03A
:100CF0000446002002900390049005905249206819
:100D000088424CD151480068401C50490860084650
:100D1000006801280DD100BF4D48C06940F0007047
:100D20004B49C8610846C06900F00070019000BFDF
:100D300000BF00BF4648806940F008004449886110
:100D40000846806900F00800019000BF00BF8815C8
:100D5000029000200390049002A93E4800F00AF996
:100D60004FF400700290022003900320059002A926
:100D7000384800F0FFF800BF3749486820F4C04009
:100D800040F0E06040F48040486000BF002211461F
:100D9000142000F00BFB142000F0F8FA52E02F4969
:100DA000206888424ED100BF2948C06940F0806069
:100DB0002749C8610846C06900F08060019000BF03
:100DC00000BF22480068401C2049086008460068AF
:100DD00001280DD100BF1E48C06940F000701C49B9
:100DE000C8610846C06900F00070019000BF00BFF4
:100DF00000BF1748806940F008001549886108461F
:100E0000806900F00800019000BF00BF88140290C4
:100E100000200390049002A90E4800F0ABF84FF4B4
:100E200000500290022003900320059002A9094877
:100E300000F0A0F800221146402000F0B7FA402050
:100E400000F0A4FA06B010BD0064004000000020CD
:100E500000100240000C014000000140006800400A
:100E60007047000010B58AB00446164884421CD171
:100E700001AB03AA0021FFF78EFC039881B201AAFF
:100E8000114801F071F9114801F07FFA104801F0A2
:100E90007CFA0E48A4380399D0F83801814204D175
:100EA00001A90A48943001F0D7FF0A48844206D1CC
:100EB0000598042803D101A9049802F039FB0AB06F
:100EC00010BD00003C000020140300207801002029
:100ED000CC0200206400002070477047704770B556
:100EE000044694F82000012822D1022084F8200032
:100EF0002068006820F001002168086000F0D0F947
:100F000005460DE000F0CCF9401B0A2808D9606ABC
:100F100040F400306062052084F82000012070BD9C
:100F20002068406800F001000028EBD16062F6E71D
:100F3000606A40F4002060620120F0E7704770476B
:100F400070477047704770477047000070B504469F
:100F500000F0A6F906462546681C10B10448007842
:100F6000054400BF00F09CF9801BA842FAD370BD75
:100F70000C0000202DE9F8470346002294466EE15C
:100F80004FF0010808FA02F4D1F8008008EA0400E2
:100F9000A0427DD1DFF8DCA2D1F80480A8EB0A09D9
:100FA000D0453AD014DCB8F1030F50D009DCB8F1C9
:100FB000000F31D0B8F1010F1CD0B8F1020F49D1A8
:100FC00020E0B8F1110F18D0B8F1120F42D11EE095
:100FD000B9F5881F25D006DCB9F5803F20D0B9F5DA
:100FE000801F37D11AE0B9F5001F18D0B9F5041FDA
:100FF00030D117E0D1F80CC02DE0D1F80C8008F109
:10100000040C28E0D1F80C8008F1080C23E0D1F89A
:101010000C8008F10C0C1EE000BF00BF00BF00BF39
:1010200000BF00BFD1F80880B8F1000F02D14FF027
:10103000040C0BE0D1F80880B8F1010F03D14FF098
:10104000080C1C6102E04FF0080C5C6103E04FF0FB
:10105000000C00E000BF00BFFF2801D8984601E067
:1010600003F104084646FF2802D84FEA820803E04D
:10107000A2F108084FEA88084746D6F800804FF0EA
:101080000F0909FA07F928EA09080CFA07F900E03C
:1010900088E048EA0908C6F80080D1F8048008F022
:1010A0008058B8F1805F7DD100BFDFF8CC81D8F8DF
:1010B000188048F00108DFF8C091C9F81880C846C8
:1010C000D8F8188008F00108CDF8008000BF00BFF4
:1010D0004FEAB9384FEA920958F829504FEA827816
:1010E0004FEA18794FF00F0808FA09F825EA0805C1
:1010F000DFF88881434502D14FF0000816E0DFF8A1
:101100008081434502D14FF001080FE0DFF8748180
:10111000434502D14FF0020808E0DFF86C814345F7
:1011200002D14FF0030801E04FF004084FEA827942
:101130004FEA197908FA09F848EA0505DFF84C8101
:101140004FEA920948F82950D1F8048008F4801831
:10115000B8F5801F0AD1DFF83881D8F8008048EA56
:101160000008DFF82C91C9F8008009E0DFF8208141
:10117000D8F8008028EA0008DFF81491C9F8008048
:10118000D1F8048008F40018B8F5001F10D1DFF87A
:10119000008108F10408D8F8008048EA0008DFF868
:1011A000F09000E05AE009F10409C9F800800DE070
:1011B000DFF8DC8008F10408D8F8008028EA00088D
:1011C000DFF8CC9009F10409C9F80080D1F8048057
:1011D00008F40038B8F5003F0ED1DFF8B480A8F16C
:1011E0000408D8F8008048EA0008DFF8A490A9F1C4
:1011F0000409C9F800800DE0DFF89480A8F1040824
:10120000D8F8008028EA0008DFF88490A9F10409E2
:10121000C9F80080D1F8048008F48038B8F5803F20
:101220000ED1DFF86C80A8F10808D8F8008048EAF1
:101230000008DFF85C90A9F10809C9F800800DE00A
:10124000DFF84C80A8F10808D8F8008028EA0008E8
:10125000DFF83C90A9F10809C9F80080521CD1F8C8
:10126000008028FA02F8B8F1000F7FF489AEBDE8DB
:10127000F887000000001110001002400008014033
:10128000000C014000100140001401400800014022
:10129000080401400AB1016101E00B0403617047D9
:1012A00001480068704700000400002003480068FF
:1012B0000349097808440149086070470400002088
:1012C0000C00002010B50848006840F010000649E6
:1012D0000860032000F0A8F80F2000F007F800F0E5
:1012E0002BF8002010BD00000020024070B504461D
:1012F0000E4800784FF47A71B1FBF0F00C490968A0
:10130000B1FBF0F5284600F093FC08B1012070BD58
:10131000102C07D200222146501E00F047F8054845
:10132000046001E00120F2E70020F0E70C0000205B
:10133000100000200800002008B500BF1148806997
:1013400040F001000F4988610846806900F0010003
:10135000009000BF00BF00BF0846C06940F0805049
:10136000C8610846C06900F08050009000BF00BF0F
:1013700000BF0549486820F0E06040F00070486018
:1013800000BF08BD001002400000014001460846B1
:10139000002809DB00F01F0301229A4043099B004B
:1013A00003F1E023C3F8002100BF70472DE9F05F8F
:1013B00080460D461646002701F00CFD07463946CB
:1013C0002A46334601F00700C0F1070ABAF1040FBC
:1013D00002D94FF0040A01E0C0F1070AD14600F13A
:1013E000040ABAF1070F02D24FF0000A01E0A0F19F
:1013F000030AD4464FF0010A0AFA09FAAAF1010ACF
:101400000AEA020A0AFA0CFA4FF0010B0BFA0CFB7B
:10141000ABF1010B0BEA030B4AEA0B0421464046F1
:1014200001F0E0FCBDE8F09F00BF00F00702064BB2
:1014300019684FF6FF031940044B0B4343EA02219E
:10144000014B196000BF70470CED00E00000FA0589
:1014500070B504460D460CB9012070BD5A480068AD
:1014600000F00700A8420ED25748006820F007009D
:101470002843554908600846006800F00700A84264
:1014800001D00120E9E7207800F0020002281DD1F8
:10149000207800F00400042805D14C48406840F44E
:1014A000E0604A494860207800F00800082805D12B
:1014B0004648406840F460504449486043484068AA
:1014C00020F0F000A168084340494860207800F00F
:1014D000010078B36068012806D13C48006800F438
:1014E000003090B90120B8E76068022806D137487B
:1014F000006800F0007040B90120AEE73348006892
:1015000000F0020008B90120A7E73048406820F049
:101510000300616808432D494860FFF7C1FE064695
:1015200009E0FFF7BDFE801B41F28831884202D9F5
:10153000032092E707E02548406800F00C0061684E
:10154000B0EB810FEDD12048006800F00700A84201
:101550000ED91D48006820F0070028431A4908608A
:101560000846006800F00700A84201D0012074E797
:10157000207800F00400042807D11448406820F4C3
:10158000E060E168084311494860207800F00800F5
:10159000082808D10D48406820F46050216940EACD
:1015A000C1000A49486000F019F808494968C1F3C8
:1015B0000311074A515CC8400649086006480068A4
:1015C000FFF794FE002048E7002002400010024090
:1015D000283F000810000020080000202DE9FE4FE1
:1015E0004FF00009CB46CA4600240020029001902B
:1015F00000902F48D0F8049009F00C0000284FD03C
:10160000042802D008284AD102E02A4802904AE081
:101610002948C9F38341445C09F48030C0B32448AD
:10162000C06A00F00F00254911F800B02048C06AD8
:1016300000F4803008B31E48C06AC0F30310401C99
:1016400001901B48C06AC0F30320801C00900198E1
:10165000A0FB0B50064617490098A1FB001200237F
:10166000A1FB047C02FB04C201FB03212A46334692
:101670003846FEF7DBFD824603E00E486043B0FBD0
:10168000FBFA0D48407BA04206D14FEA5A0A03E01C
:10169000FFE70B4804FB00FACDF808A003E000BF09
:1016A0000448029000BF00BF0298BDE8FE8F000012
:1016B0000010024000127A000A3F0008183F00089C
:1016C00000093D00F8B504460CB90120F8BD2078AA
:1016D00000F00100002878D0FD48406800F00C00C0
:1016E00004280CD0FA48406800F00C00082811D1FA
:1016F000F748406800F48030B0F5803F0AD1F448E4
:10170000006800F4003000285FD0A06800285CD199
:101710000120DBE700BFA068B0F5803F06D1EC48B0
:10172000006840F48030EA49086028E0A06858B9B1
:10173000E748006820F48030E54908600846006802
:1017400020F4802008601AE0A068B0F5A02F0BD12B
:10175000DF48006840F48020DD49086008460068E2
:1017600040F4803008600AE0D948006820F48030F6
:10177000D74908600846006820F48020086000BF50
:10178000A06888B1FFF78CFD054606E0FFF788FDED
:10179000401B642801D9032098E7CD48006800F475
:1017A00000300028F2D010E0FFF77AFD054606E091
:1017B000FFF776FD401B642801D9032086E7C44863
:1017C000006800F400300028F2D1207800F0020018
:1017D000022857D1BE48406800F00C0050B1BC4808
:1017E000406800F00C00082818D1B948406800F49F
:1017F000803098B9B648006800F0020020B16069F6
:10180000012801D0012061E7B148006820F0F8000C
:10181000A16940EAC100AE49086033E06069E8B1FF
:101820000120AC490860FFF73BFD054606E0FFF7E5
:1018300037FD401B022801D9032047E7A448006870
:1018400000F002000028F2D0A148006820F0F80063
:10185000A16940EAC1009E49086013E000209D494B
:101860000860FFF71DFD054606E0FFF719FD401B68
:10187000022801D9032029E79548006800F00200FA
:101880000028F2D1207800F0080008282DD1E06966
:10189000B8B1012090490860FFF702FD054606E057
:1018A000FFF7FEFC401B022801D903200EE7884801
:1018B000406A00F002000028F2D0012000F076FF1C
:1018C00013E0002084490860FFF7EAFC054606E0C3
:1018D000FFF7E6FC401B022801D90320F6E67C480E
:1018E000406A00F002000028F2D1207800F00400E5
:1018F000042873D100277648C06900F0805070B981
:1019000000BF7348C06940F080507149C861084603
:10191000C06900F08050009000BF00BF01276F48F1
:10192000006800F48070B0B96C48006840F48070C2
:101930006A490860FFF7B4FC054606E0FFF7B0FC13
:10194000401B642801D90320C0E66448006800F405
:1019500080700028F2D000BF2069012806D15C48C1
:10196000006A40F001005A49086227E0206958B92E
:101970005748006A20F00100554908620846006A8D
:1019800020F00400086219E0206905280BD15048B6
:10199000006A40F004004E4908620846006A40F0C0
:1019A000010008620AE04A48006A20F00100484944
:1019B00008620846006A20F00400086200BF20693F
:1019C000A0B1FFF76DFC054609E0FFF769FC401B7D
:1019D00041F28831884202D9032077E622E03C4870
:1019E000006A00F002000028EFD012E0FFF758FC78
:1019F000054608E0FFF754FC401B41F2883188425D
:101A000001D9032062E63248006A00F00200002893
:101A1000F0D1012F05D12E48C06920F080502C490B
:101A2000C86100BFE06AA0B32948406800F4803074
:101A3000B0F5803F0ED12648406800F00C00082821
:101A400008D12348C06A00F48030B0F5803F01D14E
:101A500001203BE6E06A022850D11D48006800F0F2
:101A6000805040B11A48C06A00F0F001606B8142BA
:101A700001D001202AE6002016498866FFF710FCF5
:101A8000054607E0FFF70CFC401B642802D9032041
:101A90001CE64DE00E48006800F000600028F1D11F
:101AA0000B48C06A20F0F000616B08430849C86227
:101AB0000846C06A20F47060216B08430449C8627C
:101AC000012004498866FFF7EBFB05460FE00000A4
:101AD0000010024000004242800442420070004078
:101AE000FFF7DEFB401B642801D90320EEE54E48DA
:101AF000006800F000600028F2D019E04A48C06A8F
:101B000020F480304849C862002048498866FFF7C1
:101B1000C7FB054606E0FFF7C3FB401B642801D95D
:101B20000320D3E54048006800F000600028F2D1AF
:101B3000206AE0B33C48406800F00C0008285ED002
:101B4000206A022846D1002038490866FFF7A8FB22
:101B5000054606E0FFF7A4FB401B022801D903203D
:101B6000B4E53148006800F000700028F2D1606AE6
:101B7000B0F5803F0DD12C48C06A616808432A49FE
:101B8000C8620846C06A20F00F00E1680843264991
:101B9000C862D4E9090108432349496821F4741152
:101BA00008432149486001202049086600E038E0E8
:101BB000FFF776FB054606E0FFF772FB401B0228A5
:101BC00001D9032082E51848006800F00070002861
:101BD000F2D026E0002015490866FFF761FB0546B4
:101BE00006E0FFF75DFB401B022801D903206DE5ED
:101BF0000D48006800F000700028F2D111E0206A62
:101C0000012800D162E50848466806F48031606A20
:101C1000814204D106F47011A06A814201D00120F2
:101C200054E5002052E5000000100240000042424E
:101C300070B504462546681EB0F1807F01D30120AF
:101C40000FE0681E4FF0E02148610F214FF0FF3098
:101C500001F0C8F800204FF0E021886107200861FA
:101C6000002070BD7047704730B502460B4600BF7C
:101C700092F83C00012801D1022030BD012082F8F9
:101C80003C0000BF022082F83D00106844681068E4
:101C9000816824F070041868044310684460124D91
:101CA0001068A8420FD01068B0F1804F0BD00F4DD4
:101CB0001068A84207D00E4D1068A84203D00D4D01
:101CC0001068A84205D121F08001586801431068CE
:101CD0008160012082F83D0000BF002082F83C00B6
:101CE00000BF00BFC9E70000002C01400004004015
:101CF00000080040000C004010B504460CB901205B
:101D000010BD94F83D0028B9002084F83C0020461E
:101D100000F026F8022084F83D00211D206800F024
:101D2000D9FF012084F8460000BF84F83E0001215D
:101D30003F200155402001554120015500BF00BF03
:101D4000012084F8420043200155442001554520DC
:101D5000015500BF012084F83D000020D0E70000BD
:101D600038B504460D492068884215D100BF0C489B
:101D7000C06940F002000A49C8610846C06900F025
:101D80000200009000BF00BF002211461D20FFF797
:101D90000DFB1D20FFF7FAFA38BD000000040040DB
:101DA000001002402DE9F04104460D46002700BF17
:101DB00094F83C00012802D10220BDE8F081012006
:101DC00084F83C0000BF022084F83D00206886684B
:101DD00026F0770626F47F4620688660286850281B
:101DE00033D00CDC202850D004DC00284BD0102845
:101DF00051D149E0302849D040284CD139E0602801
:101E00002DD0702807D0B0F5805F03D0B0F5005F0B
:101E100041D10DE041E0D5E902136A68206800F085
:101E20009BFF2068866846F077062068866034E06D
:101E3000D5E902136A68206800F08EFF2068806888
:101E400040F480402168886027E0EA68696820687B
:101E500000F096FF5021206800F089FF1DE0EA683D
:101E60006968206800F09FFF6021206800F07FFF14
:101E700013E0EA686968206800F082FF402120686A
:101E800000F075FF09E000BF00BF00BF29682068AF
:101E900000F06DFF01E0012700BF00BF012084F8C2
:101EA0003D0000BF002084F83C0000BF384684E7B6
:101EB000704710B5044620680069C0F34000D8B1EF
:101EC0002068C068C0F34000B0B16FF00200216824
:101ED0000861012020772068806900F0030018B1B4
:101EE0002046FFF7E5FF05E0204600F0ADF820466C
:101EF00000F0ABF80020207720680069C0F3800074
:101F0000D8B12068C068C0F38000B0B16FF00400A1
:101F100021680861022020772068806900F4407001
:101F200018B12046FFF7C4FF05E0204600F08CF80A
:101F3000204600F08AF80020207720680069C0F36E
:101F4000C000D8B12068C068C0F3C000B0B16FF065
:101F5000080021680861042020772068C06900F02B
:101F6000030018B12046FFF7A3FF05E0204600F06C
:101F70006BF8204600F069F800202077206800699F
:101F8000C0F30010D8B12068C068C0F30010B0B131
:101F90006FF0100021680861082020772068C06970
:101FA00000F4407018B12046FFF782FF05E020469C
:101FB00000F04AF8204600F048F80020207720681A
:101FC000006900F0010058B12068C06800F001000D
:101FD00030B16FF0010021680861204600F036F84A
:101FE00020680069C0F3C01058B12068C068C0F311
:101FF000C01030B16FF08000216808612046FFF703
:1020000031FE20680069C0F3801058B12068C068B4
:10201000C0F3801030B16FF04000216808612046A5
:1020200000F015F820680069C0F3401058B120682E
:10203000C068C0F3401030B16FF020002168086123
:102040002046FFF710FE10BD70477047704770477D
:1020500000BFFEE7074A084B1A60C0F88C11002247
:10206000064B5A6008221A6100229A60DA601A75DB
:1020700070470000712F000818000020340600206F
:102080007CB506460C4615460DB9012000E000203F
:10209000012D01D1012100E00021084358B3B4F81B
:1020A0005400000A8DF8000094F854008DF80100E7
:1020B000B4F88000000A8DF8020094F880008DF8D2
:1020C0000300B4F8AC00000A8DF8040094F8AC00EA
:1020D0008DF80500B4F8D800000A8DF8060094F8D1
:1020E000D8008DF80700D4F88C016A464FF40071CF
:1020F0003368984700BF0DB9012000E00020022D91
:1021000001D1012100E00021084358B3B4F80401D3
:10211000000A8DF8000094F804018DF80100B4F86D
:102120003001000A8DF8020094F830018DF80300A8
:10213000B4F85C01000A8DF8040094F85C018DF895
:102140000500B4F88801000A8DF8060094F88801AB
:102150008DF80700D4F88C016A4640F2FF1133680D
:10216000984700BF7CBD000070B504460D4616467A
:102170000649D4F88C01486032462946204600F0D2
:1021800007F808B1012070BD0020FCE7180000200E
:102190002DE9F04105460F461646FCB2012C01DA46
:1021A000012000E00020082C01DD012100E00021D9
:1021B000084310B10120BDE8F0817078317840EA21
:1021C000012000B204EB440101EBC40105EB8101E5
:1021D0004880F078B17840EA012001B204EB440075
:1021E00000EBC40005EB800081807079317940EA12
:1021F000012001B204EB440000EBC40005EB8000B9
:10220000C180B17904EB440000EBC40005EB800011
:10221000017204EB440101EBC40105EB8101498823
:1022200088B200F04BF804EB440101EBC40105EB6C
:102230008101086104EB440101EBC40105EB81015C
:10224000498888B200F04CF804EB440101EBC4016A
:1022500005EB8101C86004EB440101EBC40105EB0F
:102260008101C98888B200F05FF8804601F0C4FCA3
:1022700004EB440101EBC40105EB8101886104EB2F
:10228000440000EBC40005EB8000818804EB4400AF
:1022900000EBC40005EB8000818204EB440000EBFE
:1022A000C40005EB8000017A04EB440000EBC4009D
:1022B00005EB8000C16100207DE7000070B5044699
:1022C000204601F0CDFC0646034901F0D3FB05464C
:1022D000024901F0D9FC70BD00F8FF450000B4438D
:1022E0002DE9F84F8246504601F0BAFC0B490090A8
:1022F00001F0C0FB834601F02FFB8046084A094BE2
:1023000001F02CFA064600224FF0804301F026FA35
:10231000044601F0ABF9BDE8F88F000000F8FF4576
:102320001F85EB51B81E094070B50446A4F58040E6
:1023300001F07EFC06464FF08D4101F09BFB054607
:10234000014901F0A1FC70BD0000A0412DE9F04160
:102350000446204601F000FB05464FF03332044BA3
:1023600001F0FCF9074601F081F9BDE8F0810000B9
:102370003333D33F70B504460D46A38B9AB2217B0D
:102380002B46A06800F0A2F870BD70B50446204648
:1023900000F00AF8B4F9240001F04AFC054621696E
:1023A00001F068FB606370BD2DE9F0410446217BBC
:1023B00001EB410202EBC101A06800EB8100408803
:1023C0002084217B01EB410202EBC101A06800EBFC
:1023D00081008188A184217B01EB410202EBC101D4
:1023E000A06800EB8100C188E184B4F9260001F007
:1023F0009EF907464FF033321D4B01F0AFF9054609
:1024000001F066F92063B4F92010B4F92200081A2B
:1024100010F5805F02DCE06A401CE062B4F9201035
:10242000B4F92200081AB0F5805F02DBE06A401EB2
:10243000E062B4F92010E06A01EB4030A062B4F928
:10244000240001F0F5FB0546216901F013FB6063F0
:10245000206B01F0EDFB0646216901F015FC0546F5
:10246000616801F0DDFC6064218C6184BDE8F0816D
:102470003333D33F70B504460D46287B2073A868DC
:10248000A060286920616868606028682060296809
:10249000A068FFF7DFFD70BD2DE9F04104460D4651
:1024A0001646A583A18B88B2FFF73EFFA061A06905
:1024B000FFF74CFF0746216901F0E6FB60613146FA
:1024C0002046FFF757FFBDE8F08100002DE9F041FD
:1024D00004460D4616461F460C49D4F88C01486048
:1024E00031B205EB450000EBC50004EB800001852F
:1024F00057B9052095FBF0F0401C00F0FF0842465C
:1025000021460248FFF7BCFDBDE8F081180000201D
:1025100010B50E480E4908600420486000210C48A0
:102520008160C1604FF480210161C90041610021D7
:1025300001760121417600218176C17601774177CC
:10254000FEF71AFB08B1FDF7D6FF10BD006400408E
:102550003C00002010B50D480D490860042048607B
:1025600000210B488160C1604FF4003101614901D5
:1025700041610021017641768176C176017741770C
:10258000FEF7FAFA08B1FDF7B6FF10BD006800408B
:102590006400002000B585B00020019002900390F7
:1025A000049000BF1C48806940F020001A498861EF
:1025B0000846806900F02000009000BF00BF00BF07
:1025C0000846806940F0080088610846806900F08C
:1025D0000800009000BF00BF00BF0846806940F0BF
:1025E000040088610846806900F00400009000BF84
:1025F00000BF002203210948FEF74CFE0320019092
:102600000120029002200390049001A90348FEF7E4
:10261000B1FC05B000BD000000100240000C0140FC
:1026200000B587B0002003900490059006900190BB
:10263000029014481449086048204860002112485C
:1026400081604FF47A71C160002101618161FFF7FF
:1026500053FB08B1FDF74FFF4FF48050039003A9DF
:102660000948FFF79FFB08B1FDF745FF00200190E7
:10267000029001A90448FFF7F7FA08B1FDF73BFF04
:1026800007B000BD000400408C00002000BFFEE742
:1026900000BFFEE72DE9F04104460E46608CE8B12C
:1026A000A06AA6EB0008B4F9220000FB08F794F832
:1026B00026000741A6623146204600F021F8C519E0
:1026C000B4F91400A84202DAB4F914500BE0B4F9DA
:1026D0001600A84207DDB4F9165004E03146204642
:1026E00000F00EF8054628B2BDE8F081018881802F
:1026F0004188C180018C41840021816081627047E2
:102700002DE9F04302460D464FF00008B2F914607F
:10271000B2F91670B2F9040000FB05FCD08810B9BC
:102720000020906022E0B2F9060000FB05F49068FA
:102730000319002B07DA906800280ADD002C08DD59
:102740006FF0004305E09068002802DA002C00DA00
:10275000144BD068984202DAD068906006E01069A5
:10276000984202DD1069906000E0936092F81E903C
:10277000906840FA09F092F81C904CFA09F900EBC5
:102780000901B14203DDA6EB0108314604E0B9427C
:1027900002DAA7EB0108394690684044906008B21D
:1027A000BDE8F083010000807047000008B50849CB
:1027B0000968C9084FF47A72B1FBF2F14143009104
:1027C00000BF00BF00994A1E00920029F9D108BD40
:1027D000100000207047000010B5054800F07CF89C
:1027E000034800F013FA024800F056F810BD00004C
:1027F000D400002010B5034800F078F800F068FE1F
:1028000010BD0000D40000200246002107E0064869
:1028100050F83100904201D100207047491C042932
:10282000F5DB0320F9E700008C06002010B5C0217D
:102830000248FDF7E9FD002010BD0000C40600209D
:10284000024600210AE0074800EBC10000799042EF
:1028500003D1044850F831007047491C0429F2DBC9
:102860000020F9E78C060020024600210EE009480E
:1028700050F8310048B9074840F831201079054B2D
:1028800003EBC103187100207047491C0429EEDBDB
:102890000120F9E78C06002070B504462046FFF7BA
:1028A000B3FFB8B9D4F8B80001F0A6F905B2002218
:1028B000294604F1A400FFF7EFFDD4F80C0201F063
:1028C0009BF905B20022294604F5FC70FFF7E4FDF0
:1028D000002070BD0320FCE710B50446204600F040
:1028E0007CF9204600F0DCF8002010BD10B58EB059
:1028F000044620212A48FDF787FD204600F02AF9EA
:1029000028480D9028480B9008208DF830000020B2
:102910000A902648099009A904F1A400FFF7AAFD2E
:10292000234808902048069004208DF81C000020C1
:1029300005901E48049004A904F5FC70FFF79AFD69
:102940006FF4E040208104F59C7000F05FFA0120F4
:102950008DF8040000208DF805008DF808000D208A
:102960000090694604F59C7000F097FA4FF480617E
:10297000C4F8EC10052184F8F01094F8F000D4F8B5
:10298000EC104143C4F8F410102020712046FFF7EA
:102990006BFF10B101200EB010BD0020FBE700005E
:1029A0008C06002000002041140300203C00002081
:1029B0002CA0994170B50446D4F85811C4F82811D8
:1029C000FEF76EFCC4F83001D4F83011D4F83401AD
:1029D0000D1AD4F85811D4F85C010E1AB6FBF5F1B3
:1029E000C4F82411D4F8D80001F006F9C4F8240181
:1029F00004F59C7000F05CFAD4F83011C4F834117E
:102A0000D4F8D80001F0F8F8C4F89000D4F8E80041
:102A100001F0F2F8C4F89800D4F83012C4F8E811C4
:102A2000D4F82C0201F0E8F8C4F8E401D4F83C0230
:102A300001F0E2F8C4F8EC01002070BD0146D1F8C5
:102A40002821D1F8F400B2FBF0F300FB1322C1F807
:102A5000002191F8F80030B9D1F8F420D1F8000144
:102A6000121AC1F80021D1F80001C0EB4032D1F8B0
:102A7000F400B2FBF0F2C1F80021D1F82421C1F832
:102A8000FC20D1F8E821C1F8C021D1F8E421C1F837
:102A9000BC21D1F8EC21C1F8C4210020704700000E
:102AA00070B504462046FFF7AFFE00284ED1D4F89B
:102AB000D011D4F8BC010D1A294604F5C870FFF7EF
:102AC000E9FDC4F8D801D4F8D80101F0B1F8C4F890
:102AD0000C02B4F90810B4F90C000D1AA07988B9E9
:102AE00041F6FF70401BA84203DAA5F5F855FF3DFB
:102AF00008E041F6FF7028444042A84202DD41F65A
:102B0000FF700544294604F11000FFF7C3FD608102
:102B1000B4F90A10B4F90E000D1A28B20C49088055
:102B2000294604F13C00FFF7B5FDC4F8840094F891
:102B3000F80018B9D4F88410C4F88410D4F88400CC
:102B400001F076F8C4F8B800002070BD0320FCE75F
:102B50002C00002010B50446582104F11000FDF7A8
:102B600053FC582104F5B270FDF74EFC012121827F
:102B700061824FF47A71A1844FF61841E1840A21F1
:102B8000A1870121E1874FF47A71A4F850104FF624
:102B90001841A4F852104FF47A71A1644942E164DB
:102BA0000121A4F89011A4F892110021A4F8B01109
:102BB0004FF47A71A4F8A4114FF61841A4F8A611A5
:102BC00004F11000FFF792FD04F13C00FFF78EFDC9
:102BD00004F5C870FFF78AFD10BD0146088808811A
:102BE0004888A1F86001002070470146B1F8000153
:102BF00002B28A81B1F8FC0002B2CA81B1F8BC010C
:102C000002B24FF4B17042520020704710B5044632
:102C10002046FFF7F9FD50B92046FFF7CBFE2046CE
:102C2000FFF70CFF2046FFF7E0FF002010BD032058
:102C3000FCE710B5FEF73AFB10BD000000B593B0FD
:102C4000382105A8FDF7E0FB14216846FDF7DCFB01
:102C500001200590000407900020089001200A90B0
:102C60000020069002200D90C1030E914FF4E01158
:102C70000F910020109005A8FEF724FD08B1FDF784
:102C80003AFC0F20009002200190002002904FF4A7
:102C9000806003900020049002216846FEF7D8FB74
:102CA00008B1FDF728FC01200149086713B000BDF9
:102CB00000004242704710B5FEF7F2FA0446FFF7F3
:102CC0008BFD10BD10B50248FFF7F3F810BD0000F2
:102CD0008C00002010B502681B4B98420BD0B0F15D
:102CE000804F08D0194B984205D0194B984202D01A
:102CF000184B984203D122F070024B681A43124BD2
:102D000098420BD0B0F1804F08D0104B984205D0BC
:102D10000F4B984202D00F4B984203D122F44072DD
:102D2000CB681A4322F080034C6943EA0402026034
:102D30008B68C3620B688362034B984201D10B69B5
:102D400003630123436110BD002C014000040040D7
:102D500000080040000C004030B50C46816821F4AA
:102D60007F4142EA032525432943816030BD0A465D
:102D7000816821F0700142F00703194381607047B8
:102D800030B50B461446026A056A25F00105056256
:102D9000816921F0F00141EA041122F00A021A438C
:102DA0008161026230BD30B50B461446026A056A85
:102DB00025F010050562816921F4704141EA043172
:102DC00022F0A00242EA03128161026230BD00BF1C
:102DD000FEE7000002480068C0F3022070470000D0
:102DE0000CED00E010B5002804DB0A07130E054ABD
:102DF000135406E00A07140E034A00F00F031B1FCA
:102E0000D45410BD00E400E018ED00E00749084A82
:102E100011600849C1600021074A51600821116111
:102E200000219160D160117570470000952F000856
:102E3000240000203C0000204C0600207CB5054604
:102E40000C46D4E90401CDE90001228891B2E06882
:102E50006A462B6898477CBD70B504460D462946E6
:102E6000204600F001F870BD10B502460868906178
:102E70004868D061107EC01EC3B2907E012806D182
:102E8000146A5462D2F81B001062002010BDD07E7C
:102E900008B10120FAE70020F8E70246087910712E
:102EA00048795071087A10720868106000207047E5
:102EB0001CB504460949E068486004202074217864
:102EC00061740121A1740099C4F813109DF80410D5
:102ED000E17521460148FFF7B1FF1CBD2400002029
:102EE000FEF7F0F9FFF7AAFEFFF754FBFFF710FB20
:102EF000FFF730FBFFF794FB00F01CF80B48FDF7E1
:102F0000EEFF0B48FDF7EBFF02210848FDF7F6FA4C
:102F100002210748FDF7F2FAFFF76CFC04E0FFF727
:102F2000CAFE0420FEF712F8F9E700003C0000207A
:102F30006400002000B58BB00120099006900020AD
:102F400007900120089000200590019002900390C6
:102F5000049001A90448FDF78BFB01A90348FDF784
:102F600087FB0BB000BD00003C0000206400002087
:102F700070B505460C46164604480460044B3246BC
:102F800001462846FDF7CFFA70BD00003406002048
:102F90001400002070B505460C461646044804602F
:102FA000044B324601462846FDF7BDFA70BD0000CD
:102FB0004C0600202000002070B505460C46164641
:102FC00004484460044B324601462846FDF7ABFAFC
:102FD00070BD0000AC060020300000200FB42DE9C9
:102FE000F0418AB005460C469DF84A00089012A8A8
:102FF000C0780990DDF84D000690DDF8510007908B
:10300000002002900390049005909DF820008DF818
:103010001000BDF8180080B2ADF81400BDF81A0019
:1030200080B2ADF812009DF82010204600F038FA6A
:103030000290059800901C4802A90EC900F0E7F91B
:103040000646002002900390049005909DF824000D
:103050008DF81000BDF81C0080B2ADF81400BDF86A
:103060001E0080B2ADF812009DF82410204600F03A
:1030700017FA0290059800900B4802A90EC900F0BB
:10308000C6F9074646EA0728ADF84A801F208DF8A2
:1030900049000E2212A92846FDF73FF90AB0BDE803
:1030A000F0015DF814FB0000C40600200FB470B5F9
:1030B00005460E46BDF81A00F8B9082413E0BDF81D
:1030C0001A00C4F1080181F00201084048B1C4F1BE
:1030D000080101EB4101144A02EBC1001821FDF780
:1030E00093F9601EC4B2002CE9D10E2206A928462D
:1030F000FDF713F970BC5DF814FB00240AE00DF134
:103100001D00005D28B10DF11D00015D064800F0B5
:1031100064F9641C082CF2DB0E2206A92846FDF790
:10312000FCF800BFE6E70000C40600200FB430B58D
:1031300091B005460C469DF85A000A9016A8C07832
:103140000B9016A80FC8CDE90E23CDE90C019DF810
:103150002800012806D0022815D0032824D00428EE
:1031600046D133E09DF82C001C2204F12001079089
:103170006846FDF717F904F110000FC800F04CF88D
:10318000CDE9080135E09DF82C001C2204F14C012A
:1031900007906846FDF706F904F13C000FC800F0FF
:1031A0003BF8CDE9080124E09DF82C001C2204F531
:1031B000BA7107906846FDF7F5F804F5B070001D88
:1031C0000FC800F029F8CDE9080112E09DF82C00A5
:1031D0001C2204F5D07107906846FDF7E3F804F56A
:1031E000B07030300FC800F017F8CDE9080100E0EA
:1031F00000BF00BF0898CDF835000998CDF8390018
:103200001F208DF859000E2216A92846FDF785F8D3
:1032100011B030BC5DF814FB0FB41FB5119C002138
:1032200002910391099800B201900A9800B20090AF
:10323000012C06D0022C0DD0032C14D0042C2CD140
:1032400022E0BDF82C00ADF80800BDF82E00ADF866
:103250000A0026E0BDF81C00ADF80800BDF83400F7
:10326000ADF80A001DE0BDF81E00ADF80800BDF87D
:103270003600ADF80A00BDF80400ADF80C00BDF84A
:103280000000ADF80E000CE0BDF83A00ADF8080003
:10329000BDF83E00ADF80A0003E000200290039064
:1032A00000BF00BFDDE9020104B010BC5DF814FBF3
:1032B0000FB47FB505460C469DF82A0002900AA877
:1032C000C0780390DDF82D000090DDF8310001900A
:1032D0009DF80800012806D002280CD0032812D03F
:1032E000042820D117E09DF80C20694604F1100055
:1032F00000F026F818E09DF80C20694604F13C0027
:1033000000F01EF810E09DF80C20694604F5B2703C
:1033100000F016F808E09DF80C20694604F5C87026
:1033200000F00EF800E000BF00BF1F208DF829005C
:103330000E220AA92846FCF7F0FF7FBC5DF814FBBB
:103340001CB5002400940194012A06D0022A09D059
:10335000032A0CD0042A18D112E00B8883824B88F0
:10336000C38216E00B8883804B88838311E00B882F
:10337000C3804B88C3838B888381CB88038208E01A
:103380000B8843844B88C38403E00023009301939C
:1033900000BF00BF1CBD0246002108E001EB410058
:1033A00002EBC000007C08B9C8B27047491C08296C
:1033B000F4DB0820F9E702460B46002109E001EBA7
:1033C000410002EBC000007C984201D1012070470F
:1033D000491C0829F3DB0820F9E770B505460E46BD
:1033E000002410E004EB440005EBC000007CB04278
:1033F00008D104EB440105EBC1001821FDF704F8E6
:10340000002070BD641C082CECDB0520F9E70FB42C
:10341000F0B504462046FFF7BEFF0546082D3DD017
:103420009DF820102046FFF7C6FF0646082E1BD049
:1034300006EB460004EBC00006A98EC908308EC01A
:1034400006EB460004EBC000BDF822104180BDF839
:10345000220028B9012006EB460104EBC1010871E6
:103460000420F0BC5DF814FB05EB450004EBC00044
:1034700006A98EC908308EC005EB450004EBC000DC
:10348000BDF822104180BDF8220028B9012005EBCB
:10349000450104EBC10108710020E2E70320E0E7E9
:1034A0000246012906D0022907D0032908D00429A1
:1034B0000CD108E002F5B170704702F10C00FBE797
:1034C00002F50A70F8E702F1D400F5E70020F3E70F
:1034D00010B50948094908600948486000200949B1
:1034E0000860486008200861042088600020C860E7
:1034F0000875FFF79BF910BDB92F000834000020B4
:1035000064000020AC06002017B585B004464022B8
:1035100007A901A8FCF746FF1D2206A9E1A8FCF7B0
:10352000FCFE0E2201A92046FCF7F7FE08B010BDF4
:1035300070B58AB004460D462A46214602A8FFF718
:10354000E3FF02A80FC806AE0FC69DF819000A28AF
:1035500036D00B284CD0112802D0122860D117E0A9
:103560009DF81C00FFF76CF9064608980090BDF81E
:103570002400ADF80400314602A8DDE90623FFF778
:10358000D5FD02A80FC8CDE90823CDE906014AE020
:103590009DF81C00FFF754F9064608980090BDF806
:1035A0002400ADF80400314602A8DDE90623FFF748
:1035B0007FFE02A80FC8CDE90823CDE9060132E05D
:1035C0009DF81C00FFF73CF9064608980090BDF8EE
:1035D0002400ADF80400314602A8DDE90623FFF718
:1035E000FDFC02A80FC8CDE90823CDE906011AE0C9
:1035F0009DF81C00FFF724F9064608980090BDF8D6
:103600002400ADF80400314602A8DDE90623FFF7E7
:103610004DFD02A80FC8CDE90823CDE9060102E05F
:1036200002200AB070BD00BF0349486806A900F037
:1036300005F80020F5E700003400002038B5054605
:103640000C4620798DF80000608861788DF80C10A8
:10365000621DD5E9003000999847621DD5E9003018
:10366000009998472070207838BD000021F0004272
:10367000A2F16052B2F5801F01F0004328BFD2F1E1
:103680007F6C0BD95FEA001C43EAC20242EB507028
:1036900018BF704728BF20F001007047B2F5801FA7
:1036A000BCBF184670474FEA410C1CF5001F02D200
:1036B000084600F0B0BB70B500F0FAF800000089D1
:1036C000FFF7F6BF4FF00040A0F580007047000004
:1036D0004FEA41034FEA5353A3F58063D3F11E032E
:1036E000C8BFD3F1210C0CDD4FF0004242EAC122E9
:1036F00042EA505232FA03FC8CEAE17CACEBE17016
:103700007047102BC4BF0020704703F5787CBCF1D4
:10371000FF3F04D06FF0004282EA2100704770B58D
:1037200000F0C6F84992248000207047F2E710F0BC
:10373000004248BF4042B0FA80F310FA03F10AD0C9
:10374000C3F11D0303F580634FEA415002EB0352BE
:1037500002EBD12170474FF000007047DFF848C1FD
:1037600070B51CEA111E1EBF1CEA13159EEA0C0F51
:1037700095EA0C0F00F06F8081EA030423EA4C13F2
:103780004EEAD47E21EA4C1141F4801143F48013B7
:10379000AE44A1FB024CA0FB0365AEF17F7E36195F
:1037A00055EB0C05A1FB034C4CF10003A0FB021CE4
:1037B00016EB0C06654153F10003094218BF46F0B1
:1037C000010613F4007F0BD14FEA03314FEA0530B5
:1037D000340341EA155140EA16506FF003020AE043
:1037E0004FEAC3214FEAC520F40241EA555140EAAD
:1037F00056506FF0020202EB2E4201EB025585EAB1
:10380000CE710AD05FEA440C18BF24F0004450F196
:10381000000041F1000120EAD47040F2FE7C6245D4
:1038200000D270BDA84214BF4FF080444FF0404416
:10383000002E08BF0024BEF1806FA8BFA1F1C041D7
:10384000BDE8704080F282804FF0000001F1C0417D
:1038500001F0004170479EEA0C0F0CEA131518BFE7
:1038600095EA0C0F06D04FF0000081EA030E0EF02F
:10387000004170BD00F01CF88900013E00F007B85F
:1038800000F009B84FEA430C5FEA5C5C08D081EABB
:10389000030100F05BB84FEA410C5FEA5C5CF6D1D3
:1038A0004FF00000014970470000FF070000F87F5B
:1038B0000EF1020E2EF0030E5EF8046B364205D4B4
:1038C000012A43EB030515F5001F12D8012841EB2F
:1038D000010C1CF5001F0CD80ED14FEAD17C15F558
:1038E000001F0CEB4C0C0CF1020C08BF4CEBD37C12
:1038F00004E04FF0080C01E04FEAD37C0CEB4C05E0
:1039000026FA05F606F00706B6F1040C06D20EEB11
:10391000860CBDE870404CF0010C6047DFE80CF00D
:10392000090B02024FF000414FF00000A1F5002109
:1039300070BD19461046012851EB010418BFD4F59B
:10394000001484BF002001F0004170BD0808A0F5FC
:1039500000114FEA3101704743004FEAD30C4FEAA0
:103960003C0C43401FBF40070CF1605113F0FE4F69
:1039700070471CF0006F03D100200CF0004170472D
:103980000CF0004343EA507010B540EACC0000F060
:10399000FCF900BF000000924FEA0001FFF7D6BF1C
:1039A0004FF000414FF00000A1F5002170470000EA
:1039B00090EA010F48BF81F0004100F13882421ABD
:1039C0003CBF801A89184FEAD0524FF07F4C1CEA56
:1039D000410FA2EBD15318BF9CEA026F00F03B806D
:1039E0004FF0004C4CEA00204CEA012121FA03FC84
:1039F00010EB0C0C1ED202F1FF325FEA1C2040EBF0
:103A0000C25038BF70471CF07F0F4FEA400C18BF00
:103A1000BCF17F4F38BF7047C3F12003994008BF06
:103A200020F00100BCF17F4F38BF7047A0F1C040CB
:103A300000F0F1B94FEA3C00000A40EBC25028BF49
:103A40001CF0FF0F4FEA400CE6D018BFBCF17F4FCF
:103A500038BF7047EAE79CEA026F05D010EA5C0FB6
:103A600008BF00F00040704710B500F08EF900BFAD
:103A700064FBBE3E4FF47F0C1CEAD0121EBF1CEA52
:103A8000D11392EA0C0F93EA0C0F00F0858090EAB4
:103A9000010F48BF42F4807240F4000C41F4000072
:103AA0002CF07F4120F07F4000B58142A2EB030261
:103AB0000FF2081CACEB504EC0F100009EF800E085
:103AC0004FEA4E0E00FB0EFC38BF49004FEA2C1C9B
:103AD00002F5FA020CFB0EF34FEACE1E4FEA112C50
:103AE0004FEAC1210EEB635E42EB22420EFB0CFC5F
:103AF0004FEA1C5300FB03114FEA112C4FEA01312E
:103B00000EFB0CFC4FEADC4C00FB0C11C14228BF41
:103B100009184CEB03335DF804EB10EB410143EB68
:103B2000C250B2F57C0F38BF704729D512F0F00FA4
:103B30001CBF00F1C04000F000407047008182834C
:103B40008485868788898B8C8D8E8F9192939596AC
:103B500097999A9C9D9FA0A2A3A5A7A8AAACAEB036
:103B6000B2B3B5B7B9BCBEC0C2C5C7C9CCCED1D43B
:103B7000D7D9DCDFE2E6E9ECF0F3F7FAFE0000006B
:103B80004FEA400C0CF1807CBCF17E4F28BF70479F
:103B9000B0F1C04000F03FB990EA010F0CEAD11338
:103BA00048BF42F48072624538BF634507D213F4C0
:103BB0007F0F16D080EA010000F00040704710B57A
:103BC00000F0E3F8097EFC3E00F005B880EA010051
:103BD00000F00040704780EA010000F0004000F073
:103BE0001AB912F47F0F04BF0248704780EA01003F
:103BF00000F011B90000C07F41000B0ED3F19E020E
:103C000008D950F400034FEA032323FA02F048BF17
:103C10004042704710B500F0B8F800BF49922480C8
:103C2000002070476FF0004282EA200070470000D9
:103C300010F0004148BF4042B0FA80F310FA03F29E
:103C4000C3F19D030BD051EAC35101EB122053067F
:103C500038BF704700F1010008BF20F00100704735
:103C6000B0FA80F310FA03F2C3F19D030AD0D9052C
:103C700001EB1220530638BF704700F1010008BF66
:103C800020F00100704700004FF47F0C1CEAD012B6
:103C90001EBF1CEAD11392EA0C0F93EA0C0F00F03E
:103CA000478090EA010F48BF42F480724FF0004C09
:103CB0004CEA00204CEA012102EB0302A0FB0113B5
:103CC000A2F50002002918BF43F001035B0028BFE2
:103CD0004FEA330342EB22425FEA132C4CEBC25013
:103CE0002EBFBCEB436FB2F57C0F70474FEA036CFD
:103CF000BCF1004F08BF20F00100B2F57C0F38BFC7
:103D000070470BD582F0FF0212F5803FC8BF7047A5
:103D100000F1C040D8BF00F00040704700F5000C33
:103D20005FEA4C0C48BF7047B0F1C04000F073B878
:103D300090EA010F0CEAD11348BF42F48072624549
:103D400038BF634504D280EA010000F000407047AC
:103D500010B500F01AF800BF8900013E00F007B866
:103D600000F009B85FEA410C5FEA1C6C08D080EAF9
:103D7000010000F050B85FEA400C5FEA1C6CF6D11D
:103D80004FF00040A0F5800070470EF1020E2EF0BB
:103D9000030E5EF8044B244204D44FEA4102B2F110
:103DA0007F4F11D84FEA4003B3F17F4F0CD80ED1AB
:103DB0004FEAD07CB2F17F4F0CEB4C0C0CF1020CB3
:103DC00008BF4CEBD17C04E04FF0080C01E04FEA57
:103DD000D17C0CEB4C0324FA03F404F00704B4F197
:103DE000040C06D20EEB840CBDE810404CF0010C24
:103DF0006047DFE80CF0070802024FF00040A0F532
:103E0000800010BD0846420018BFD2F1807288BF02
:103E100000F0004010BDFF2141EAD050C0057047BE
:103E200090EA010F48BF81F000413FF5C8AD421A4A
:103E300004D882F00042A0EB020011444FEAD052B5
:103E40004FF07F4C1CEA410FA2EBD15318BF9CEA04
:103E5000026F4AD04FF0004C4CEA00204CEA01219E
:103E600021FA03FCB0EB0C0C0FD412F0FE0F36D08D
:103E70005FEA4C001DD5001240EBC25038BF7047BE
:103E80001CF03F0F18BF70470BE0A2F101025FEA80
:103E90001C2040EBC25038BF70471CF07F0F18BF8A
:103EA0007047C3F12003994014BF401E20F0010069
:103EB000704780084FEA122308BF7047B0FA80FCB1
:103EC000A2EB0C02CCF1280C60FA0CF093EA122F52
:103ED00004BF00EBC25070474FEAC3707047130A2B
:103EE0005FEADC1008BF7047F6E79CEA026F04D077
:103EF00010EA5C0F08BF0020704710B5FFF745FFC0
:103F000040DFF63E81F000407047000004050607E0
:103F1000080900000000000D01020304050607085F
:103F2000090A0B0C0D0E0F1000000000000000002D
:103F3000010203040607080900000000010203044F
:103F4000603F0008000000203C0000008C010008D9
:103F50009C3F00083C000020AC0D0000A8010008B8
:103F60000000000000000000100000000100000040
:103F70000024F40000000000000000000000000029
:103F80000000000000000000000000000000000031
:0C3F900000000000000000000000000025
:04000005080001519D
:00000001FF
